{
  "contractName": "TodoList",
  "abi": [
    {
      "inputs": [],
      "stateMutability": "nonpayable",
      "type": "constructor"
    },
    {
      "anonymous": false,
      "inputs": [
        {
          "indexed": false,
          "internalType": "uint256",
          "name": "id",
          "type": "uint256"
        },
        {
          "indexed": false,
          "internalType": "bool",
          "name": "completed",
          "type": "bool"
        }
      ],
      "name": "taskCompleted",
      "type": "event"
    },
    {
      "anonymous": false,
      "inputs": [
        {
          "indexed": false,
          "internalType": "uint256",
          "name": "id",
          "type": "uint256"
        },
        {
          "indexed": false,
          "internalType": "string",
          "name": "content",
          "type": "string"
        },
        {
          "indexed": false,
          "internalType": "bool",
          "name": "completed",
          "type": "bool"
        }
      ],
      "name": "taskCreated",
      "type": "event"
    },
    {
      "anonymous": false,
      "inputs": [
        {
          "indexed": false,
          "internalType": "uint256",
          "name": "id",
          "type": "uint256"
        }
      ],
      "name": "taskDeleted",
      "type": "event"
    },
    {
      "inputs": [],
      "name": "taskCount",
      "outputs": [
        {
          "internalType": "uint256",
          "name": "",
          "type": "uint256"
        }
      ],
      "stateMutability": "view",
      "type": "function",
      "constant": true
    },
    {
      "inputs": [
        {
          "internalType": "uint256",
          "name": "",
          "type": "uint256"
        }
      ],
      "name": "tasks",
      "outputs": [
        {
          "internalType": "uint256",
          "name": "id",
          "type": "uint256"
        },
        {
          "internalType": "string",
          "name": "content",
          "type": "string"
        },
        {
          "internalType": "bool",
          "name": "completed",
          "type": "bool"
        }
      ],
      "stateMutability": "view",
      "type": "function",
      "constant": true
    },
    {
      "inputs": [
        {
          "internalType": "string",
          "name": "_content",
          "type": "string"
        }
      ],
      "name": "createTask",
      "outputs": [],
      "stateMutability": "nonpayable",
      "type": "function"
    },
    {
      "inputs": [
        {
          "internalType": "uint256",
          "name": "_id",
          "type": "uint256"
        }
      ],
      "name": "toggleCompleted",
      "outputs": [],
      "stateMutability": "nonpayable",
      "type": "function"
    },
    {
      "inputs": [
        {
          "internalType": "uint256",
          "name": "_id",
          "type": "uint256"
        }
      ],
      "name": "removeTask",
      "outputs": [],
      "stateMutability": "nonpayable",
      "type": "function"
    }
  ],
  "bytecode": "0x6080604052600080553480156200001557600080fd5b50620000656040518060400160405280600d81526020017f54756761732070657274616d61000000000000000000000000000000000000008152506200006b640100000000026401000000009004565b62000624565b6000808154809291906200007f9062000179565b919050555060405180606001604052806000548152602001828152602001600015158152506001600080548152602001908152602001600020600082015181600001556020820151816001019081620000d991906200043c565b5060408201518160020160006101000a81548160ff0219169083151502179055509050507f7ffc5def84f84c9a24e3f0ad22a6aa1dcf1626b3936280fe2f8e5d38c636b6416000548260006040516200013593929190620005e0565b60405180910390a150565b7f4e487b7100000000000000000000000000000000000000000000000000000000600052601160045260246000fd5b6000819050919050565b600062000186826200016f565b91507fffffffffffffffffffffffffffffffffffffffffffffffffffffffffffffffff8203620001bb57620001ba62000140565b5b600182019050919050565b600081519050919050565b7f4e487b7100000000000000000000000000000000000000000000000000000000600052604160045260246000fd5b7f4e487b7100000000000000000000000000000000000000000000000000000000600052602260045260246000fd5b600060028204905060018216806200024857607f821691505b6020821081036200025e576200025d62000200565b5b50919050565b60008190508160005260206000209050919050565b60006020601f8301049050919050565b60008160020a8302905092915050565b600060088302620002cb7fffffffffffffffffffffffffffffffffffffffffffffffffffffffffffffffff8262000289565b620002d7868362000289565b95508019841693508086168417925050509392505050565b6000819050919050565b60006200031a620003146200030e846200016f565b620002ef565b6200016f565b9050919050565b6000819050919050565b6200033683620002f9565b6200034e620003458262000321565b84845462000299565b825550505050565b600090565b6200036562000356565b620003728184846200032b565b505050565b5b818110156200039a576200038e6000826200035b565b60018101905062000378565b5050565b601f821115620003e957620003b38162000264565b620003be8462000279565b81016020851015620003ce578190505b620003e6620003dd8562000279565b83018262000377565b50505b505050565b60008160020a8304905092915050565b60006200041160001984600802620003ee565b1980831691505092915050565b60006200042c8383620003fe565b9150826002028217905092915050565b6200044782620001c6565b67ffffffffffffffff811115620004635762000462620001d1565b5b6200046f82546200022f565b6200047c8282856200039e565b600060209050601f831160018114620004b457600084156200049f578287015190505b620004ab85826200041e565b8655506200051b565b601f198416620004c48662000264565b60005b82811015620004ee57848901518255600182019150602085019450602081019050620004c7565b868310156200050e57848901516200050a601f891682620003fe565b8355505b6001600288020188555050505b505050505050565b6200052e816200016f565b82525050565b600082825260208201905092915050565b60005b838110156200056557808201518184015260208101905062000548565b60008484015250505050565b6000601f19601f8301169050919050565b60006200058f82620001c6565b6200059b818562000534565b9350620005ad81856020860162000545565b620005b88162000571565b840191505092915050565b60008115159050919050565b620005da81620005c3565b82525050565b6000606082019050620005f7600083018662000523565b81810360208301526200060b818562000582565b90506200061c6040830184620005cf565b949350505050565b610c1680620006346000396000f3fe608060405234801561001057600080fd5b5060043610610074576000357c010000000000000000000000000000000000000000000000000000000090048063111002aa14610079578063455f5024146100955780638d977672146100b1578063b6cb58a5146100e3578063c308411714610101575b600080fd5b610093600480360381019061008e9190610685565b61011d565b005b6100af60048036038101906100aa9190610704565b6101ec565b005b6100cb60048036038101906100c69190610704565b610376565b6040516100da939291906107da565b60405180910390f35b6100eb610435565b6040516100f89190610818565b60405180910390f35b61011b60048036038101906101169190610704565b61043b565b005b60008081548092919061012f90610862565b9190505550604051806060016040528060005481526020018281526020016000151581525060016000805481526020019081526020016000206000820151816000015560208201518160010190816101879190610abc565b5060408201518160020160006101000a81548160ff0219169083151502179055509050507f7ffc5def84f84c9a24e3f0ad22a6aa1dcf1626b3936280fe2f8e5d38c636b6416000548260006040516101e1939291906107da565b60405180910390a150565b60006001600083815260200190815260200160002060405180606001604052908160008201548152602001600182018054610226906108d9565b80601f0160208091040260200160405190810160405280929190818152602001828054610252906108d9565b801561029f5780601f106102745761010080835404028352916020019161029f565b820191906000526020600020905b81548152906001019060200180831161028257829003601f168201915b505050505081526020016002820160009054906101000a900460ff1615151515815250509050806040015115816040019015159081151581525050806001600084815260200190815260200160002060008201518160000155602082015181600101908161030d9190610abc565b5060408201518160020160006101000a81548160ff0219169083151502179055509050507ffc8c3643622669a0bb21133ffa1738f6d5c2df6b162da4fed93691abb53c46568160000151826040015160405161036a929190610b8e565b60405180910390a15050565b600160205280600052604060002060009150905080600001549080600101805461039f906108d9565b80601f01602080910402602001604051908101604052809291908181526020018280546103cb906108d9565b80156104185780601f106103ed57610100808354040283529160200191610418565b820191906000526020600020905b8154815290600101906020018083116103fb57829003601f168201915b5050505050908060020160009054906101000a900460ff16905083565b60005481565b6001600082815260200190815260200160002060008082016000905560018201600061046791906104ce565b6002820160006101000a81549060ff0219169055505060008081548092919061048f90610bb7565b91905055507f9722408031ac4ea04bf6cfc50c3a5445b5b3e8c9586815798219f96918b1c758816040516104c39190610818565b60405180910390a150565b5080546104da906108d9565b6000825580601f106104ec575061050b565b601f01602090049060005260206000209081019061050a919061050e565b5b50565b5b8082111561052757600081600090555060010161050f565b5090565b6000604051905090565b600080fd5b600080fd5b600080fd5b600080fd5b6000601f19601f8301169050919050565b7f4e487b7100000000000000000000000000000000000000000000000000000000600052604160045260246000fd5b61059282610549565b810181811067ffffffffffffffff821117156105b1576105b061055a565b5b80604052505050565b60006105c461052b565b90506105d08282610589565b919050565b600067ffffffffffffffff8211156105f0576105ef61055a565b5b6105f982610549565b9050602081019050919050565b82818337600083830152505050565b6000610628610623846105d5565b6105ba565b90508281526020810184848401111561064457610643610544565b5b61064f848285610606565b509392505050565b600082601f83011261066c5761066b61053f565b5b813561067c848260208601610615565b91505092915050565b60006020828403121561069b5761069a610535565b5b600082013567ffffffffffffffff8111156106b9576106b861053a565b5b6106c584828501610657565b91505092915050565b6000819050919050565b6106e1816106ce565b81146106ec57600080fd5b50565b6000813590506106fe816106d8565b92915050565b60006020828403121561071a57610719610535565b5b6000610728848285016106ef565b91505092915050565b61073a816106ce565b82525050565b600081519050919050565b600082825260208201905092915050565b60005b8381101561077a57808201518184015260208101905061075f565b60008484015250505050565b600061079182610740565b61079b818561074b565b93506107ab81856020860161075c565b6107b481610549565b840191505092915050565b60008115159050919050565b6107d4816107bf565b82525050565b60006060820190506107ef6000830186610731565b81810360208301526108018185610786565b905061081060408301846107cb565b949350505050565b600060208201905061082d6000830184610731565b92915050565b7f4e487b7100000000000000000000000000000000000000000000000000000000600052601160045260246000fd5b600061086d826106ce565b91507fffffffffffffffffffffffffffffffffffffffffffffffffffffffffffffffff820361089f5761089e610833565b5b600182019050919050565b7f4e487b7100000000000000000000000000000000000000000000000000000000600052602260045260246000fd5b600060028204905060018216806108f157607f821691505b602082108103610904576109036108aa565b5b50919050565b60008190508160005260206000209050919050565b60006020601f8301049050919050565b60008160020a8302905092915050565b60006008830261096f7fffffffffffffffffffffffffffffffffffffffffffffffffffffffffffffffff8261092f565b610979868361092f565b95508019841693508086168417925050509392505050565b6000819050919050565b60006109b66109b16109ac846106ce565b610991565b6106ce565b9050919050565b6000819050919050565b6109d08361099b565b6109e46109dc826109bd565b84845461093f565b825550505050565b600090565b6109f96109ec565b610a048184846109c7565b505050565b5b81811015610a2857610a1d6000826109f1565b600181019050610a0a565b5050565b601f821115610a6d57610a3e8161090a565b610a478461091f565b81016020851015610a56578190505b610a6a610a628561091f565b830182610a09565b50505b505050565b60008160020a8304905092915050565b6000610a9360001984600802610a72565b1980831691505092915050565b6000610aac8383610a82565b9150826002028217905092915050565b610ac582610740565b67ffffffffffffffff811115610ade57610add61055a565b5b610ae882546108d9565b610af3828285610a2c565b600060209050601f831160018114610b265760008415610b14578287015190505b610b1e8582610aa0565b865550610b86565b601f198416610b348661090a565b60005b82811015610b5c57848901518255600182019150602085019450602081019050610b37565b86831015610b795784890151610b75601f891682610a82565b8355505b6001600288020188555050505b505050505050565b6000604082019050610ba36000830185610731565b610bb060208301846107cb565b9392505050565b6000610bc2826106ce565b915060008203610bd557610bd4610833565b5b60018203905091905056fea2646970667358221220a59b621e4e962209d08fd0ac1942bbaa7b0c1843f6028246fa97bb374668895e64736f6c63430008110033",
  "immutableReferences": {},
  "source": "// SPDX-License-Identifier: MIT\n\npragma solidity ^0.8.17;\n\ncontract TodoList {\n    uint256 public taskCount = 0;\n\n    struct Task {\n        uint256 id;\n        string content;\n        bool completed;\n    }\n\n    mapping(uint256 => Task) public tasks;\n\n    event taskCreated(uint256 id, string content, bool completed);\n    event taskCompleted(uint256 id, bool completed);\n    event taskDeleted(uint256 id);\n\n    constructor() {\n        createTask(\"Tugas pertama\");\n    }\n\n    function createTask(string memory _content) public {\n        taskCount++;\n        tasks[taskCount] = Task(taskCount, _content, false);\n        emit taskCreated(taskCount, _content, false);\n    }\n\n    function toggleCompleted(uint256 _id) public {\n        Task memory _task = tasks[_id];\n        _task.completed = !_task.completed;\n        tasks[_id] = _task;\n        emit taskCompleted(_task.id, _task.completed);\n    }\n\n    function removeTask(uint256 _id) public {\n        delete tasks[_id];\n        taskCount--;\n        emit taskDeleted(_id);\n    }\n}\n",
  "sourcePath": "/Users/jee/Studies/tesis/project/todolist-dapp/contracts/TodoList.sol",
  "compiler": {
    "name": "solc",
    "version": "0.8.17+commit.8df45f5f.Emscripten.clang"
  },
  "schemaVersion": "3.4.10",
  "updatedAt": "2022-10-21T04:02:55.619Z",
  "networkType": "ethereum",
  "devdoc": {
    "kind": "dev",
    "methods": {},
    "version": 1
  },
  "userdoc": {
    "kind": "user",
    "methods": {},
    "version": 1
  }
}